:060000000A128A11DE2F36
:100F6C000A128A110028203451344E34383430346B
:100F7C00363436340D3400349B348134E834033445
:100F8C00E8340334053405343C347E088A007F0889
:100F9C0082000A128A11CB270A128A118000840A55
:100FAC0004087D0603190034FF0A0319FE0ACF2F2B
:100FBC0083133230FD000730FE00B930FF002030C3
:100FCC0084000A128A11CF270A128A11B201B301C6
:100FDC00F001F101F201F301F401F501F601F70161
:100FEC00F801F901FA01FB01FC01FD0183010A1270
:040FFC008A11B62F71
:00000001FF
