:060000000A128A11DE2F36
:100C20008316031311141118162E172E132E0800F5
:100C300083160313111511191E2E1F2E1B2E0800CB
:100C4000F000700883120313930083160313141823
:100C50002A2E2B2E252E111B2E2E2F2E2B2E08004A
:100C60000A128A11E0260A128A112D30F50004308A
:100C7000F6000A128A112B270A128A113E2E0A1236
:100C80008A110028203451344E343834303436340C
:100C900036340D3400349B348134E8340334E83482
:100CA0000334053405343C347E088A007F08820012
:100CB0000A128A1154260A128A118000840A040832
:100CC0007D0603190034FF0A0319FE0A582EF000AE
:100CD000831603139115141C6E2E6F2E6B2E831228
:100CE00003131308F10070080319772E7B2E831667
:100CF000031391167E2E8316031391121116111AE7
:100D0000822E832E7F2E71080800F4000A128A11A9
:100D100010260A128A1121300A128A1120260A127C
:100D20008A1174080A128A1120260A128A1171087F
:100D30000A128A1120260A128A110A128A1118260A
:100D40000A128A110330F3009730F200F20BA62E3C
:100D5000F30BA62EAB2E0800F4000A128A111026FF
:100D60000A128A1121300A128A1120260A128A11C7
:100D700074080A128A1120260A128A110A128A118C
:100D800010260A128A1122300A128A1120260A120B
:100D90008A1101300A128A1167260A128A11F50097
:100DA0000A128A1118260A128A110330F3009730AA
:100DB000F200F20BD92EF30BD92EDE2E75080800A7
:100DC000E330FD00FC0102300A128A11AC260A123F
:100DD0008A1183120313BE00BE1727300A128A112C
:100DE000AC260A128A11FB0025300A128A11AC26A1
:100DF0000A128A1183120313BD0026300A128A11C7
:100E0000AC260A128A1183120313B60028300A1284
:100E10008A11AC260A128A1183120313B700193003
:100E20000A128A11AC260A128A1183120313BC001B
:100E300024300A128A11AC260A128A118312031373
:100E4000B50018300A128A11AC260A128A118312D0
:100E50000313B4000800E330FD007D08F10000300A
:100E60000A128A1185260A128A117C08F1000130C3
:100E70000A128A1185260A128A110310FC1C031417
:100E80000318432F452FFC14462FFC107C08F1005B
:100E900001300A128A1185260A128A11831203135D
:100EA0003E08F10002300A128A1185260A128A11C0
:100EB000E830F10007300A128A1185260A128A11D9
:100EC0000B30F10008300A128A1185260A128A11A5
:100ED0005C30F10009300A128A1185260A128A1143
:100EE000831203133D08F10025300A128A1185266A
:100EF0000A128A11831203133608F10026300A12EF
:100F00008A1185260A128A117B08F10027300A12FD
:100F10008A1185260A128A117608F8007508F700EA
:100F20000310F70DF80D7708503EF9007808031804
:100F3000013EFB3EFA007A08203883120313BC00FE
:100F40003C08F10019300A128A1185260A128A110A
:100F50007908F1001B300A128A1185260A128A11BB
:100F6000DF30F10049300A128A1185260A128A11EF
:100F7000FF30F1006E300A128A1185260A128A119A
:100F80000B30FD007D08F10000300A128A11852621
:100F90000A128A11831203133708F10028300A124B
:100FA0008A1185260A128A118230F800DD30F70096
:100FB000F70BD82FF80BD82FDD2F08008313323012
:100FC000FD000630FE004230FF00203084000A128F
:100FD0008A1158260A128A11B201B301B401B5016F
:100FE000B601B701B801B901BA01BB01BC01BD012D
:100FF000BE01FB01FC01FD0183010A128A11302EA2
:02400E00793FF8
:00000001FF
